{
  "contractName": "MultisigWalletUpgradedTest",
  "abi": [
    {
      "constant": true,
      "inputs": [],
      "name": "state",
      "outputs": [
        {
          "name": "",
          "type": "address"
        }
      ],
      "payable": false,
      "stateMutability": "view",
      "type": "function"
    },
    {
      "constant": true,
      "inputs": [],
      "name": "getMultipliedNonce",
      "outputs": [
        {
          "name": "",
          "type": "uint256"
        }
      ],
      "payable": false,
      "stateMutability": "view",
      "type": "function"
    }
  ],
  "bytecode": "0x608060405234801561001057600080fd5b506101ee806100206000396000f30060806040526004361061004c576000357c0100000000000000000000000000000000000000000000000000000000900463ffffffff168063c19d93fb14610051578063db4dc8bd146100a8575b600080fd5b34801561005d57600080fd5b506100666100d3565b604051808273ffffffffffffffffffffffffffffffffffffffff1673ffffffffffffffffffffffffffffffffffffffff16815260200191505060405180910390f35b3480156100b457600080fd5b506100bd6100f8565b6040518082815260200191505060405180910390f35b6000809054906101000a900473ffffffffffffffffffffffffffffffffffffffff1681565b600060026000809054906101000a900473ffffffffffffffffffffffffffffffffffffffff1673ffffffffffffffffffffffffffffffffffffffff1663affed0e06040518163ffffffff167c0100000000000000000000000000000000000000000000000000000000028152600401602060405180830381600087803b15801561018157600080fd5b505af1158015610195573d6000803e3d6000fd5b505050506040513d60208110156101ab57600080fd5b8101908080519060200190929190505050029050905600a165627a7a723058205f93efa3b187bb16ffd445045298cbdf720613b8a1c9c4382ed50df784a938570029",
  "source": "pragma solidity ^0.4.23;\n\nimport \"./StateContainer.sol\";\n\ncontract MultisigWalletUpgradedTest is StateContainer {\n    function getMultipliedNonce()\n        public constant returns (uint256)\n    {\n        return state.nonce() * 2;\n    }\n}",
  "sourcePath": "/home/sevenflash/apps/blockchain/upgradeable-multisig/contracts/MultisigWalletUpgradedTest.sol",
  "compiler": {
    "name": "solc",
    "version": "0.4.23+commit.124ca40d.Emscripten.clang"
  },
  "schemaVersion": "2.0.0",
  "updatedAt": "2018-06-09T15:58:27.429Z"
}