{
  "contractName": "MultisigWalletUpgraded",
  "abi": [
    {
      "constant": true,
      "inputs": [],
      "name": "state",
      "outputs": [
        {
          "name": "",
          "type": "address"
        }
      ],
      "payable": false,
      "stateMutability": "view",
      "type": "function"
    },
    {
      "payable": true,
      "stateMutability": "payable",
      "type": "fallback"
    },
    {
      "anonymous": false,
      "inputs": [
        {
          "indexed": false,
          "name": "destination",
          "type": "address"
        },
        {
          "indexed": false,
          "name": "value",
          "type": "uint256"
        }
      ],
      "name": "FailedExecution",
      "type": "event"
    },
    {
      "anonymous": false,
      "inputs": [
        {
          "indexed": false,
          "name": "destination",
          "type": "address"
        },
        {
          "indexed": false,
          "name": "value",
          "type": "uint256"
        }
      ],
      "name": "SuccessfulExecution",
      "type": "event"
    },
    {
      "anonymous": false,
      "inputs": [
        {
          "indexed": false,
          "name": "oldContract",
          "type": "address"
        },
        {
          "indexed": false,
          "name": "newContract",
          "type": "address"
        }
      ],
      "name": "Upgraded",
      "type": "event"
    },
    {
      "constant": true,
      "inputs": [],
      "name": "newMethod",
      "outputs": [
        {
          "name": "",
          "type": "bool"
        }
      ],
      "payable": false,
      "stateMutability": "view",
      "type": "function"
    },
    {
      "constant": false,
      "inputs": [
        {
          "name": "v",
          "type": "uint8[]"
        },
        {
          "name": "r",
          "type": "bytes32[]"
        },
        {
          "name": "s",
          "type": "bytes32[]"
        },
        {
          "name": "destination",
          "type": "address"
        },
        {
          "name": "value",
          "type": "uint256"
        },
        {
          "name": "data",
          "type": "bytes"
        }
      ],
      "name": "execute",
      "outputs": [],
      "payable": false,
      "stateMutability": "nonpayable",
      "type": "function"
    },
    {
      "constant": false,
      "inputs": [
        {
          "name": "v",
          "type": "uint8[]"
        },
        {
          "name": "r",
          "type": "bytes32[]"
        },
        {
          "name": "s",
          "type": "bytes32[]"
        },
        {
          "name": "upgradedMethods",
          "type": "address"
        }
      ],
      "name": "upgrade",
      "outputs": [],
      "payable": false,
      "stateMutability": "nonpayable",
      "type": "function"
    }
  ],
  "bytecode": "0x608060405234801561001057600080fd5b5061143c806100206000396000f300608060405260043610610062576000357c0100000000000000000000000000000000000000000000000000000000900463ffffffff1680633b076dbc146100645780634859a5c614610093578063c19d93fb1461019f578063f12d394f146101f6575b005b34801561007057600080fd5b50610079610352565b604051808215151515815260200191505060405180910390f35b34801561009f57600080fd5b5061019d600480360381019080803590602001908201803590602001908080602002602001604051908101604052809392919081815260200183836020028082843782019150505050505091929192908035906020019082018035906020019080806020026020016040519081016040528093929190818152602001838360200280828437820191505050505050919291929080359060200190820180359060200190808060200260200160405190810160405280939291908181526020018383602002808284378201915050505050509192919290803573ffffffffffffffffffffffffffffffffffffffff16906020019092919050505061035b565b005b3480156101ab57600080fd5b506101b4610bd4565b604051808273ffffffffffffffffffffffffffffffffffffffff1673ffffffffffffffffffffffffffffffffffffffff16815260200191505060405180910390f35b34801561020257600080fd5b50610350600480360381019080803590602001908201803590602001908080602002602001604051908101604052809392919081815260200183836020028082843782019150505050505091929192908035906020019082018035906020019080806020026020016040519081016040528093929190818152602001838360200280828437820191505050505050919291929080359060200190820180359060200190808060200260200160405190810160405280939291908181526020018383602002808284378201915050505050509192919290803573ffffffffffffffffffffffffffffffffffffffff16906020019092919080359060200190929190803590602001908201803590602001908080601f0160208091040260200160405190810160405280939291908181526020018383808284378201915050505050509192919290505050610bf9565b005b60006001905090565b6000806000806000809054906101000a900473ffffffffffffffffffffffffffffffffffffffff1673ffffffffffffffffffffffffffffffffffffffff1663dc8452cd6040518163ffffffff167c0100000000000000000000000000000000000000000000000000000000028152600401602060405180830381600087803b1580156103e657600080fd5b505af11580156103fa573d6000803e3d6000fd5b505050506040513d602081101561041057600080fd5b8101908080519060200190929190505050885114151561042f57600080fd5b86518851148015610441575085518751145b151561044c57600080fd5b60197f01000000000000000000000000000000000000000000000000000000000000000230866000809054906101000a900473ffffffffffffffffffffffffffffffffffffffff1673ffffffffffffffffffffffffffffffffffffffff1663affed0e06040518163ffffffff167c0100000000000000000000000000000000000000000000000000000000028152600401602060405180830381600087803b1580156104f757600080fd5b505af115801561050b573d6000803e3d6000fd5b505050506040513d602081101561052157600080fd5b810190808051906020019092919050505060405180857effffffffffffffffffffffffffffffffffffffffffffffffffffffffffffff19167effffffffffffffffffffffffffffffffffffffffffffffffffffffffffffff191681526001018473ffffffffffffffffffffffffffffffffffffffff1673ffffffffffffffffffffffffffffffffffffffff166c010000000000000000000000000281526014018373ffffffffffffffffffffffffffffffffffffffff1673ffffffffffffffffffffffffffffffffffffffff166c010000000000000000000000000281526014018281526020019450505050506040518091039020935060009250600091505b6000809054906101000a900473ffffffffffffffffffffffffffffffffffffffff1673ffffffffffffffffffffffffffffffffffffffff1663dc8452cd6040518163ffffffff167c0100000000000000000000000000000000000000000000000000000000028152600401602060405180830381600087803b1580156106a657600080fd5b505af11580156106ba573d6000803e3d6000fd5b505050506040513d60208110156106d057600080fd5b81019080805190602001909291905050508210156109035760018489848151811015156106f957fe5b90602001906020020151898581518110151561071157fe5b90602001906020020151898681518110151561072957fe5b90602001906020020151604051600081526020016040526040518085600019166000191681526020018460ff1660ff1681526020018360001916600019168152602001826000191660001916815260200194505050505060206040516020810390808403906000865af11580156107a4573d6000803e3d6000fd5b5050506020604051035190508273ffffffffffffffffffffffffffffffffffffffff168173ffffffffffffffffffffffffffffffffffffffff161115156107ea57600080fd5b600115156000809054906101000a900473ffffffffffffffffffffffffffffffffffffffff1673ffffffffffffffffffffffffffffffffffffffff16632f54bf6e836040518263ffffffff167c0100000000000000000000000000000000000000000000000000000000028152600401808273ffffffffffffffffffffffffffffffffffffffff1673ffffffffffffffffffffffffffffffffffffffff168152602001915050602060405180830381600087803b1580156108aa57600080fd5b505af11580156108be573d6000803e3d6000fd5b505050506040513d60208110156108d457600080fd5b810190808051906020019092919050505015151415156108f357600080fd5b8092508180600101925050610621565b6000809054906101000a900473ffffffffffffffffffffffffffffffffffffffff1673ffffffffffffffffffffffffffffffffffffffff1663627cdcb96040518163ffffffff167c0100000000000000000000000000000000000000000000000000000000028152600401600060405180830381600087803b15801561098857600080fd5b505af115801561099c573d6000803e3d6000fd5b505050507f5d611f318680d00598bb735d61bacf0c514c6b50e1e5ad30040a4df2b12791c76000809054906101000a900473ffffffffffffffffffffffffffffffffffffffff1673ffffffffffffffffffffffffffffffffffffffff166329907a916040518163ffffffff167c0100000000000000000000000000000000000000000000000000000000028152600401602060405180830381600087803b158015610a4657600080fd5b505af1158015610a5a573d6000803e3d6000fd5b505050506040513d6020811015610a7057600080fd5b810190808051906020019092919050505086604051808373ffffffffffffffffffffffffffffffffffffffff1673ffffffffffffffffffffffffffffffffffffffff1681526020018273ffffffffffffffffffffffffffffffffffffffff1673ffffffffffffffffffffffffffffffffffffffff1681526020019250505060405180910390a16000809054906101000a900473ffffffffffffffffffffffffffffffffffffffff1673ffffffffffffffffffffffffffffffffffffffff1663ede693ea866040518263ffffffff167c0100000000000000000000000000000000000000000000000000000000028152600401808273ffffffffffffffffffffffffffffffffffffffff1673ffffffffffffffffffffffffffffffffffffffff168152602001915050600060405180830381600087803b158015610bb257600080fd5b505af1158015610bc6573d6000803e3d6000fd5b505050505050505050505050565b6000809054906101000a900473ffffffffffffffffffffffffffffffffffffffff1681565b6000806000806000809054906101000a900473ffffffffffffffffffffffffffffffffffffffff1673ffffffffffffffffffffffffffffffffffffffff1663dc8452cd6040518163ffffffff167c0100000000000000000000000000000000000000000000000000000000028152600401602060405180830381600087803b158015610c8457600080fd5b505af1158015610c98573d6000803e3d6000fd5b505050506040513d6020811015610cae57600080fd5b81019080805190602001909291905050508a51141515610ccd57600080fd5b88518a51148015610cdf575087518951145b1515610cea57600080fd5b60197f010000000000000000000000000000000000000000000000000000000000000002308888886000809054906101000a900473ffffffffffffffffffffffffffffffffffffffff1673ffffffffffffffffffffffffffffffffffffffff1663affed0e06040518163ffffffff167c0100000000000000000000000000000000000000000000000000000000028152600401602060405180830381600087803b158015610d9757600080fd5b505af1158015610dab573d6000803e3d6000fd5b505050506040513d6020811015610dc157600080fd5b810190808051906020019092919050505060405180877effffffffffffffffffffffffffffffffffffffffffffffffffffffffffffff19167effffffffffffffffffffffffffffffffffffffffffffffffffffffffffffff191681526001018673ffffffffffffffffffffffffffffffffffffffff1673ffffffffffffffffffffffffffffffffffffffff166c010000000000000000000000000281526014018573ffffffffffffffffffffffffffffffffffffffff1673ffffffffffffffffffffffffffffffffffffffff166c0100000000000000000000000002815260140184815260200183805190602001908083835b602083101515610ed95780518252602082019150602081019050602083039250610eb4565b6001836020036101000a03801982511681845116808217855250505050505090500182815260200196505050505050506040518091039020935060009250600091505b6000809054906101000a900473ffffffffffffffffffffffffffffffffffffffff1673ffffffffffffffffffffffffffffffffffffffff1663dc8452cd6040518163ffffffff167c0100000000000000000000000000000000000000000000000000000000028152600401602060405180830381600087803b158015610fa157600080fd5b505af1158015610fb5573d6000803e3d6000fd5b505050506040513d6020811015610fcb57600080fd5b81019080805190602001909291905050508210156111fe576001848b84815181101515610ff457fe5b906020019060200201518b8581518110151561100c57fe5b906020019060200201518b8681518110151561102457fe5b90602001906020020151604051600081526020016040526040518085600019166000191681526020018460ff1660ff1681526020018360001916600019168152602001826000191660001916815260200194505050505060206040516020810390808403906000865af115801561109f573d6000803e3d6000fd5b5050506020604051035190508273ffffffffffffffffffffffffffffffffffffffff168173ffffffffffffffffffffffffffffffffffffffff161115156110e557600080fd5b600115156000809054906101000a900473ffffffffffffffffffffffffffffffffffffffff1673ffffffffffffffffffffffffffffffffffffffff16632f54bf6e836040518263ffffffff167c0100000000000000000000000000000000000000000000000000000000028152600401808273ffffffffffffffffffffffffffffffffffffffff1673ffffffffffffffffffffffffffffffffffffffff168152602001915050602060405180830381600087803b1580156111a557600080fd5b505af11580156111b9573d6000803e3d6000fd5b505050506040513d60208110156111cf57600080fd5b810190808051906020019092919050505015151415156111ee57600080fd5b8092508180600101925050610f1c565b6000809054906101000a900473ffffffffffffffffffffffffffffffffffffffff1673ffffffffffffffffffffffffffffffffffffffff1663627cdcb96040518163ffffffff167c0100000000000000000000000000000000000000000000000000000000028152600401600060405180830381600087803b15801561128357600080fd5b505af1158015611297573d6000803e3d6000fd5b505050508673ffffffffffffffffffffffffffffffffffffffff16868660405180828051906020019080838360005b838110156112e15780820151818401526020810190506112c6565b50505050905090810190601f16801561130e5780820380516001836020036101000a031916815260200191505b5091505060006040518083038185875af19250505015611398577f796ead65966dfc89e533f4b62e5c82a7e6a98a149c2891cc49e852b46716b9918787604051808373ffffffffffffffffffffffffffffffffffffffff1673ffffffffffffffffffffffffffffffffffffffff1681526020018281526020019250505060405180910390a1611404565b7f066fc570e3a3811c28559be449c33499ae9fc81b2d8ecbca19551a46681212308787604051808373ffffffffffffffffffffffffffffffffffffffff1673ffffffffffffffffffffffffffffffffffffffff1681526020018281526020019250505060405180910390a15b505050505050505050505600a165627a7a7230582090acc8f6ed54ac7d3ce64a06a3262c44ea9140baf40b016e72b5cebddcadd33a0029",
  "source": "pragma solidity ^0.4.23;\n\nimport \"./StateContainer.sol\";\n\ncontract MultisigWalletUpgraded is StateContainer {\n    function newMethod()\n        public constant returns (bool)\n    {\n        return true;\n    }\n\n    function execute(uint8[] v, bytes32[] r, bytes32[] s, address destination, uint256 value, bytes data) public {\n        require(v.length == state.required());\n        require(v.length == r.length && r.length == s.length);\n\n        bytes32 hash = keccak256(byte(0x19), this, destination, value, data, state.nonce());\n\n        address previousSender = address(0);\n        for (uint i = 0; i < state.required(); i++) {\n            address sender = ecrecover(hash, v[i], r[i], s[i]);\n\n            require(sender > previousSender);\n            require(state.isOwner(sender) == true);\n\n            previousSender = sender;\n        }\n\n        state.incrementNonce();\n\n        if (destination.call.value(value)(data)) {\n            emit FailedExecution(destination, value);\n        } else {\n            emit SuccessfulExecution(destination, value);\n        }\n    }\n\n    function upgrade(uint8[] v, bytes32[] r, bytes32[] s, address upgradedMethods)\n        public\n    {\n        require(v.length == state.required());\n        require(v.length == r.length && r.length == s.length);\n\n        bytes32 hash = keccak256(byte(0x19), this, upgradedMethods, state.nonce());\n\n        address previousSender = address(0);\n        for (uint i = 0; i < state.required(); i++) {\n            address sender = ecrecover(hash, v[i], r[i], s[i]);\n\n            require(sender > previousSender);\n            require(state.isOwner(sender) == true);\n\n            previousSender = sender;\n        }\n\n        state.incrementNonce();\n\n        emit Upgraded(state.methods(), upgradedMethods);\n\n        state.changeMethods(upgradedMethods);\n    }\n\n    function () payable {\n    }\n\n    event FailedExecution(address destination, uint256 value);\n    event SuccessfulExecution(address destination, uint256 value);\n    event Upgraded(address oldContract, address newContract);\n}",
  "sourcePath": "/home/sevenflash/apps/blockchain/upgradeable-multisig/contracts/MultisigWalletUpgraded.sol",
  "compiler": {
    "name": "solc",
    "version": "0.4.23+commit.124ca40d.Emscripten.clang"
  },
  "schemaVersion": "2.0.0",
  "updatedAt": "2018-06-09T16:56:12.221Z"
}