{
  "contractName": "MultisigState",
  "abi": [
    {
      "constant": true,
      "inputs": [
        {
          "name": "",
          "type": "uint256"
        }
      ],
      "name": "owners",
      "outputs": [
        {
          "name": "",
          "type": "address"
        }
      ],
      "payable": false,
      "stateMutability": "view",
      "type": "function"
    },
    {
      "constant": true,
      "inputs": [],
      "name": "methods",
      "outputs": [
        {
          "name": "",
          "type": "address"
        }
      ],
      "payable": false,
      "stateMutability": "view",
      "type": "function"
    },
    {
      "constant": true,
      "inputs": [
        {
          "name": "",
          "type": "address"
        }
      ],
      "name": "isOwner",
      "outputs": [
        {
          "name": "",
          "type": "bool"
        }
      ],
      "payable": false,
      "stateMutability": "view",
      "type": "function"
    },
    {
      "constant": true,
      "inputs": [],
      "name": "wallet",
      "outputs": [
        {
          "name": "",
          "type": "address"
        }
      ],
      "payable": false,
      "stateMutability": "view",
      "type": "function"
    },
    {
      "constant": true,
      "inputs": [],
      "name": "nonce",
      "outputs": [
        {
          "name": "",
          "type": "uint256"
        }
      ],
      "payable": false,
      "stateMutability": "view",
      "type": "function"
    },
    {
      "constant": true,
      "inputs": [],
      "name": "required",
      "outputs": [
        {
          "name": "",
          "type": "uint256"
        }
      ],
      "payable": false,
      "stateMutability": "view",
      "type": "function"
    },
    {
      "inputs": [
        {
          "name": "_required",
          "type": "uint256"
        },
        {
          "name": "_owners",
          "type": "address[]"
        },
        {
          "name": "_methods",
          "type": "address"
        }
      ],
      "payable": false,
      "stateMutability": "nonpayable",
      "type": "constructor"
    },
    {
      "constant": false,
      "inputs": [],
      "name": "incrementNonce",
      "outputs": [],
      "payable": false,
      "stateMutability": "nonpayable",
      "type": "function"
    },
    {
      "constant": false,
      "inputs": [
        {
          "name": "_newContract",
          "type": "address"
        }
      ],
      "name": "changeMethods",
      "outputs": [],
      "payable": false,
      "stateMutability": "nonpayable",
      "type": "function"
    }
  ],
  "bytecode": "0x608060405234801561001057600080fd5b5060405161073738038061073783398101806040528101908080519060200190929190805182019291906020018051906020019092919050505060003273ffffffffffffffffffffffffffffffffffffffff163373ffffffffffffffffffffffffffffffffffffffff161415151561008457fe5b33600560006101000a81548173ffffffffffffffffffffffffffffffffffffffff021916908373ffffffffffffffffffffffffffffffffffffffff1602179055508360028190555082600390805190602001906100e29291906101b6565b50600090505b825181101561016c576001806000858481518110151561010457fe5b9060200190602002015173ffffffffffffffffffffffffffffffffffffffff1673ffffffffffffffffffffffffffffffffffffffff16815260200190815260200160002060006101000a81548160ff02191690831515021790555080806001019150506100e8565b81600460006101000a81548173ffffffffffffffffffffffffffffffffffffffff021916908373ffffffffffffffffffffffffffffffffffffffff16021790555050505050610283565b82805482825590600052602060002090810192821561022f579160200282015b8281111561022e5782518260006101000a81548173ffffffffffffffffffffffffffffffffffffffff021916908373ffffffffffffffffffffffffffffffffffffffff160217905550916020019190600101906101d6565b5b50905061023c9190610240565b5090565b61028091905b8082111561027c57600081816101000a81549073ffffffffffffffffffffffffffffffffffffffff021916905550600101610246565b5090565b90565b6104a5806102926000396000f30060806040526004361061008e576000357c0100000000000000000000000000000000000000000000000000000000900463ffffffff168063025e7c271461009357806329907a91146101005780632f54bf6e14610157578063521eb273146101b2578063627cdcb914610209578063affed0e014610220578063dc8452cd1461024b578063ede693ea14610276575b600080fd5b34801561009f57600080fd5b506100be600480360381019080803590602001909291905050506102b9565b604051808273ffffffffffffffffffffffffffffffffffffffff1673ffffffffffffffffffffffffffffffffffffffff16815260200191505060405180910390f35b34801561010c57600080fd5b506101156102f7565b604051808273ffffffffffffffffffffffffffffffffffffffff1673ffffffffffffffffffffffffffffffffffffffff16815260200191505060405180910390f35b34801561016357600080fd5b50610198600480360381019080803573ffffffffffffffffffffffffffffffffffffffff16906020019092919050505061031d565b604051808215151515815260200191505060405180910390f35b3480156101be57600080fd5b506101c761033d565b604051808273ffffffffffffffffffffffffffffffffffffffff1673ffffffffffffffffffffffffffffffffffffffff16815260200191505060405180910390f35b34801561021557600080fd5b5061021e610363565b005b34801561022c57600080fd5b506102356103cd565b6040518082815260200191505060405180910390f35b34801561025757600080fd5b506102606103d3565b6040518082815260200191505060405180910390f35b34801561028257600080fd5b506102b7600480360381019080803573ffffffffffffffffffffffffffffffffffffffff1690602001909291905050506103d9565b005b6003818154811015156102c857fe5b906000526020600020016000915054906101000a900473ffffffffffffffffffffffffffffffffffffffff1681565b600460009054906101000a900473ffffffffffffffffffffffffffffffffffffffff1681565b60016020528060005260406000206000915054906101000a900460ff1681565b600560009054906101000a900473ffffffffffffffffffffffffffffffffffffffff1681565b600560009054906101000a900473ffffffffffffffffffffffffffffffffffffffff1673ffffffffffffffffffffffffffffffffffffffff163373ffffffffffffffffffffffffffffffffffffffff161415156103bf57600080fd5b600160005401600081905550565b60005481565b60025481565b600560009054906101000a900473ffffffffffffffffffffffffffffffffffffffff1673ffffffffffffffffffffffffffffffffffffffff163373ffffffffffffffffffffffffffffffffffffffff1614151561043557600080fd5b80600460006101000a81548173ffffffffffffffffffffffffffffffffffffffff021916908373ffffffffffffffffffffffffffffffffffffffff160217905550505600a165627a7a72305820728f03c7e30bacf2da7c6f0186b6f6d0e49c90d31f229399187ffabf70fb175f0029",
  "source": "pragma solidity ^0.4.23;\n\ncontract MultisigState {\n    uint256 public nonce;\n    mapping (address => bool) public isOwner;\n\n    uint256 public required;\n    address[] public owners;\n\n    address public methods;\n\n    address public wallet;\n\n    modifier onlyWallet() {\n        require(msg.sender == wallet);\n        _;\n    }\n\n    function MultisigState (uint256 _required, address[] _owners, address _methods)\n        public\n    {\n        assert(msg.sender != tx.origin);\n\n        wallet = msg.sender;\n\n        required = _required;\n        owners = _owners;\n\n        for (uint256 i = 0; i < _owners.length; i++) {\n            isOwner[_owners[i]] = true;\n        }\n\n        methods = _methods;\n    }\n\n    function incrementNonce()\n        public onlyWallet\n    {\n        nonce = nonce + 1;\n    }\n\n    function changeMethods(address _newContract)\n        public onlyWallet\n    {\n        methods = _newContract;\n    }\n}",
  "sourcePath": "/home/sevenflash/apps/blockchain/upgradeable-multisig/contracts/MultisigState.sol",
  "compiler": {
    "name": "solc",
    "version": "0.4.23+commit.124ca40d.Emscripten.clang"
  },
  "schemaVersion": "2.0.0",
  "updatedAt": "2018-06-09T16:56:12.226Z"
}