{
  "contractName": "ProxyMultisig",
  "abi": [
    {
      "constant": true,
      "inputs": [],
      "name": "state",
      "outputs": [
        {
          "name": "",
          "type": "address"
        }
      ],
      "payable": false,
      "stateMutability": "view",
      "type": "function"
    },
    {
      "inputs": [
        {
          "name": "_required",
          "type": "uint256"
        },
        {
          "name": "_owners",
          "type": "address[]"
        }
      ],
      "payable": false,
      "stateMutability": "nonpayable",
      "type": "constructor"
    },
    {
      "payable": true,
      "stateMutability": "payable",
      "type": "fallback"
    }
  ],
  "bytecode": "0x608060405234801561001057600080fd5b50604051611f83380380611f83833981018060405281019080805190602001909291908051820192919050505060008060008351851115151561005257600080fd5b60009250600091505b83518210156100dc578273ffffffffffffffffffffffffffffffffffffffff16848381518110151561008957fe5b9060200190602002015173ffffffffffffffffffffffffffffffffffffffff161115156100b557600080fd5b83828151811015156100c357fe5b906020019060200201519250818060010192505061005b565b6100e46101f9565b604051809103906000f080158015610100573d6000803e3d6000fd5b50905084848261010e610209565b80848152602001806020018373ffffffffffffffffffffffffffffffffffffffff1673ffffffffffffffffffffffffffffffffffffffff168152602001828103825284818151815260200191508051906020019060200280838360005b8381101561018657808201518184015260208101905061016b565b50505050905001945050505050604051809103906000f0801580156101af573d6000803e3d6000fd5b506000806101000a81548173ffffffffffffffffffffffffffffffffffffffff021916908373ffffffffffffffffffffffffffffffffffffffff1602179055505050505050610219565b6040516114198061043383390190565b6040516107378061184c83390190565b61020b806102286000396000f300608060405260043610610041576000357c0100000000000000000000000000000000000000000000000000000000900463ffffffff168063c19d93fb14610163575b600060606000809054906101000a900473ffffffffffffffffffffffffffffffffffffffff1673ffffffffffffffffffffffffffffffffffffffff166329907a916040518163ffffffff167c0100000000000000000000000000000000000000000000000000000000028152600401602060405180830381600087803b1580156100ca57600080fd5b505af11580156100de573d6000803e3d6000fd5b505050506040513d60208110156100f457600080fd5b810190808051906020019092919050505091506000368080601f0160208091040260200160405190810160405280939291908181526020018383808284378201915050505050509050600080825160208401855af43d604051816000823e826000811461015f578282f35b8282fd5b34801561016f57600080fd5b506101786101ba565b604051808273ffffffffffffffffffffffffffffffffffffffff1673ffffffffffffffffffffffffffffffffffffffff16815260200191505060405180910390f35b6000809054906101000a900473ffffffffffffffffffffffffffffffffffffffff16815600a165627a7a72305820b014e512bb63f6869dcf8e0c480faee4608d0c84fbc1dc13ef03e6d4d325d3f50029608060405234801561001057600080fd5b506113f9806100206000396000f300608060405260043610610057576000357c0100000000000000000000000000000000000000000000000000000000900463ffffffff1680634859a5c614610059578063c19d93fb14610165578063f12d394f146101bc575b005b34801561006557600080fd5b50610163600480360381019080803590602001908201803590602001908080602002602001604051908101604052809392919081815260200183836020028082843782019150505050505091929192908035906020019082018035906020019080806020026020016040519081016040528093929190818152602001838360200280828437820191505050505050919291929080359060200190820180359060200190808060200260200160405190810160405280939291908181526020018383602002808284378201915050505050509192919290803573ffffffffffffffffffffffffffffffffffffffff169060200190929190505050610318565b005b34801561017157600080fd5b5061017a610b91565b604051808273ffffffffffffffffffffffffffffffffffffffff1673ffffffffffffffffffffffffffffffffffffffff16815260200191505060405180910390f35b3480156101c857600080fd5b50610316600480360381019080803590602001908201803590602001908080602002602001604051908101604052809392919081815260200183836020028082843782019150505050505091929192908035906020019082018035906020019080806020026020016040519081016040528093929190818152602001838360200280828437820191505050505050919291929080359060200190820180359060200190808060200260200160405190810160405280939291908181526020018383602002808284378201915050505050509192919290803573ffffffffffffffffffffffffffffffffffffffff16906020019092919080359060200190929190803590602001908201803590602001908080601f0160208091040260200160405190810160405280939291908181526020018383808284378201915050505050509192919290505050610bb6565b005b6000806000806000809054906101000a900473ffffffffffffffffffffffffffffffffffffffff1673ffffffffffffffffffffffffffffffffffffffff1663dc8452cd6040518163ffffffff167c0100000000000000000000000000000000000000000000000000000000028152600401602060405180830381600087803b1580156103a357600080fd5b505af11580156103b7573d6000803e3d6000fd5b505050506040513d60208110156103cd57600080fd5b810190808051906020019092919050505088511415156103ec57600080fd5b865188511480156103fe575085518751145b151561040957600080fd5b60197f01000000000000000000000000000000000000000000000000000000000000000230866000809054906101000a900473ffffffffffffffffffffffffffffffffffffffff1673ffffffffffffffffffffffffffffffffffffffff1663affed0e06040518163ffffffff167c0100000000000000000000000000000000000000000000000000000000028152600401602060405180830381600087803b1580156104b457600080fd5b505af11580156104c8573d6000803e3d6000fd5b505050506040513d60208110156104de57600080fd5b810190808051906020019092919050505060405180857effffffffffffffffffffffffffffffffffffffffffffffffffffffffffffff19167effffffffffffffffffffffffffffffffffffffffffffffffffffffffffffff191681526001018473ffffffffffffffffffffffffffffffffffffffff1673ffffffffffffffffffffffffffffffffffffffff166c010000000000000000000000000281526014018373ffffffffffffffffffffffffffffffffffffffff1673ffffffffffffffffffffffffffffffffffffffff166c010000000000000000000000000281526014018281526020019450505050506040518091039020935060009250600091505b6000809054906101000a900473ffffffffffffffffffffffffffffffffffffffff1673ffffffffffffffffffffffffffffffffffffffff1663dc8452cd6040518163ffffffff167c0100000000000000000000000000000000000000000000000000000000028152600401602060405180830381600087803b15801561066357600080fd5b505af1158015610677573d6000803e3d6000fd5b505050506040513d602081101561068d57600080fd5b81019080805190602001909291905050508210156108c05760018489848151811015156106b657fe5b9060200190602002015189858151811015156106ce57fe5b9060200190602002015189868151811015156106e657fe5b90602001906020020151604051600081526020016040526040518085600019166000191681526020018460ff1660ff1681526020018360001916600019168152602001826000191660001916815260200194505050505060206040516020810390808403906000865af1158015610761573d6000803e3d6000fd5b5050506020604051035190508273ffffffffffffffffffffffffffffffffffffffff168173ffffffffffffffffffffffffffffffffffffffff161115156107a757600080fd5b600115156000809054906101000a900473ffffffffffffffffffffffffffffffffffffffff1673ffffffffffffffffffffffffffffffffffffffff16632f54bf6e836040518263ffffffff167c0100000000000000000000000000000000000000000000000000000000028152600401808273ffffffffffffffffffffffffffffffffffffffff1673ffffffffffffffffffffffffffffffffffffffff168152602001915050602060405180830381600087803b15801561086757600080fd5b505af115801561087b573d6000803e3d6000fd5b505050506040513d602081101561089157600080fd5b810190808051906020019092919050505015151415156108b057600080fd5b80925081806001019250506105de565b6000809054906101000a900473ffffffffffffffffffffffffffffffffffffffff1673ffffffffffffffffffffffffffffffffffffffff1663627cdcb96040518163ffffffff167c0100000000000000000000000000000000000000000000000000000000028152600401600060405180830381600087803b15801561094557600080fd5b505af1158015610959573d6000803e3d6000fd5b505050507f5d611f318680d00598bb735d61bacf0c514c6b50e1e5ad30040a4df2b12791c76000809054906101000a900473ffffffffffffffffffffffffffffffffffffffff1673ffffffffffffffffffffffffffffffffffffffff166329907a916040518163ffffffff167c0100000000000000000000000000000000000000000000000000000000028152600401602060405180830381600087803b158015610a0357600080fd5b505af1158015610a17573d6000803e3d6000fd5b505050506040513d6020811015610a2d57600080fd5b810190808051906020019092919050505086604051808373ffffffffffffffffffffffffffffffffffffffff1673ffffffffffffffffffffffffffffffffffffffff1681526020018273ffffffffffffffffffffffffffffffffffffffff1673ffffffffffffffffffffffffffffffffffffffff1681526020019250505060405180910390a16000809054906101000a900473ffffffffffffffffffffffffffffffffffffffff1673ffffffffffffffffffffffffffffffffffffffff1663ede693ea866040518263ffffffff167c0100000000000000000000000000000000000000000000000000000000028152600401808273ffffffffffffffffffffffffffffffffffffffff1673ffffffffffffffffffffffffffffffffffffffff168152602001915050600060405180830381600087803b158015610b6f57600080fd5b505af1158015610b83573d6000803e3d6000fd5b505050505050505050505050565b6000809054906101000a900473ffffffffffffffffffffffffffffffffffffffff1681565b6000806000806000809054906101000a900473ffffffffffffffffffffffffffffffffffffffff1673ffffffffffffffffffffffffffffffffffffffff1663dc8452cd6040518163ffffffff167c0100000000000000000000000000000000000000000000000000000000028152600401602060405180830381600087803b158015610c4157600080fd5b505af1158015610c55573d6000803e3d6000fd5b505050506040513d6020811015610c6b57600080fd5b81019080805190602001909291905050508a51141515610c8a57600080fd5b88518a51148015610c9c575087518951145b1515610ca757600080fd5b60197f010000000000000000000000000000000000000000000000000000000000000002308888886000809054906101000a900473ffffffffffffffffffffffffffffffffffffffff1673ffffffffffffffffffffffffffffffffffffffff1663affed0e06040518163ffffffff167c0100000000000000000000000000000000000000000000000000000000028152600401602060405180830381600087803b158015610d5457600080fd5b505af1158015610d68573d6000803e3d6000fd5b505050506040513d6020811015610d7e57600080fd5b810190808051906020019092919050505060405180877effffffffffffffffffffffffffffffffffffffffffffffffffffffffffffff19167effffffffffffffffffffffffffffffffffffffffffffffffffffffffffffff191681526001018673ffffffffffffffffffffffffffffffffffffffff1673ffffffffffffffffffffffffffffffffffffffff166c010000000000000000000000000281526014018573ffffffffffffffffffffffffffffffffffffffff1673ffffffffffffffffffffffffffffffffffffffff166c0100000000000000000000000002815260140184815260200183805190602001908083835b602083101515610e965780518252602082019150602081019050602083039250610e71565b6001836020036101000a03801982511681845116808217855250505050505090500182815260200196505050505050506040518091039020935060009250600091505b6000809054906101000a900473ffffffffffffffffffffffffffffffffffffffff1673ffffffffffffffffffffffffffffffffffffffff1663dc8452cd6040518163ffffffff167c0100000000000000000000000000000000000000000000000000000000028152600401602060405180830381600087803b158015610f5e57600080fd5b505af1158015610f72573d6000803e3d6000fd5b505050506040513d6020811015610f8857600080fd5b81019080805190602001909291905050508210156111bb576001848b84815181101515610fb157fe5b906020019060200201518b85815181101515610fc957fe5b906020019060200201518b86815181101515610fe157fe5b90602001906020020151604051600081526020016040526040518085600019166000191681526020018460ff1660ff1681526020018360001916600019168152602001826000191660001916815260200194505050505060206040516020810390808403906000865af115801561105c573d6000803e3d6000fd5b5050506020604051035190508273ffffffffffffffffffffffffffffffffffffffff168173ffffffffffffffffffffffffffffffffffffffff161115156110a257600080fd5b600115156000809054906101000a900473ffffffffffffffffffffffffffffffffffffffff1673ffffffffffffffffffffffffffffffffffffffff16632f54bf6e836040518263ffffffff167c0100000000000000000000000000000000000000000000000000000000028152600401808273ffffffffffffffffffffffffffffffffffffffff1673ffffffffffffffffffffffffffffffffffffffff168152602001915050602060405180830381600087803b15801561116257600080fd5b505af1158015611176573d6000803e3d6000fd5b505050506040513d602081101561118c57600080fd5b810190808051906020019092919050505015151415156111ab57600080fd5b8092508180600101925050610ed9565b6000809054906101000a900473ffffffffffffffffffffffffffffffffffffffff1673ffffffffffffffffffffffffffffffffffffffff1663627cdcb96040518163ffffffff167c0100000000000000000000000000000000000000000000000000000000028152600401600060405180830381600087803b15801561124057600080fd5b505af1158015611254573d6000803e3d6000fd5b505050508673ffffffffffffffffffffffffffffffffffffffff16868660405180828051906020019080838360005b8381101561129e578082015181840152602081019050611283565b50505050905090810190601f1680156112cb5780820380516001836020036101000a031916815260200191505b5091505060006040518083038185875af19250505015611355577f796ead65966dfc89e533f4b62e5c82a7e6a98a149c2891cc49e852b46716b9918787604051808373ffffffffffffffffffffffffffffffffffffffff1673ffffffffffffffffffffffffffffffffffffffff1681526020018281526020019250505060405180910390a16113c1565b7f066fc570e3a3811c28559be449c33499ae9fc81b2d8ecbca19551a46681212308787604051808373ffffffffffffffffffffffffffffffffffffffff1673ffffffffffffffffffffffffffffffffffffffff1681526020018281526020019250505060405180910390a15b505050505050505050505600a165627a7a72305820021a0b8b1d334a3c816bb0fdd25acbf7df250b7add33e0bee3b05b041b964cd10029608060405234801561001057600080fd5b5060405161073738038061073783398101806040528101908080519060200190929190805182019291906020018051906020019092919050505060003273ffffffffffffffffffffffffffffffffffffffff163373ffffffffffffffffffffffffffffffffffffffff161415151561008457fe5b33600560006101000a81548173ffffffffffffffffffffffffffffffffffffffff021916908373ffffffffffffffffffffffffffffffffffffffff1602179055508360028190555082600390805190602001906100e29291906101b6565b50600090505b825181101561016c576001806000858481518110151561010457fe5b9060200190602002015173ffffffffffffffffffffffffffffffffffffffff1673ffffffffffffffffffffffffffffffffffffffff16815260200190815260200160002060006101000a81548160ff02191690831515021790555080806001019150506100e8565b81600460006101000a81548173ffffffffffffffffffffffffffffffffffffffff021916908373ffffffffffffffffffffffffffffffffffffffff16021790555050505050610283565b82805482825590600052602060002090810192821561022f579160200282015b8281111561022e5782518260006101000a81548173ffffffffffffffffffffffffffffffffffffffff021916908373ffffffffffffffffffffffffffffffffffffffff160217905550916020019190600101906101d6565b5b50905061023c9190610240565b5090565b61028091905b8082111561027c57600081816101000a81549073ffffffffffffffffffffffffffffffffffffffff021916905550600101610246565b5090565b90565b6104a5806102926000396000f30060806040526004361061008e576000357c0100000000000000000000000000000000000000000000000000000000900463ffffffff168063025e7c271461009357806329907a91146101005780632f54bf6e14610157578063521eb273146101b2578063627cdcb914610209578063affed0e014610220578063dc8452cd1461024b578063ede693ea14610276575b600080fd5b34801561009f57600080fd5b506100be600480360381019080803590602001909291905050506102b9565b604051808273ffffffffffffffffffffffffffffffffffffffff1673ffffffffffffffffffffffffffffffffffffffff16815260200191505060405180910390f35b34801561010c57600080fd5b506101156102f7565b604051808273ffffffffffffffffffffffffffffffffffffffff1673ffffffffffffffffffffffffffffffffffffffff16815260200191505060405180910390f35b34801561016357600080fd5b50610198600480360381019080803573ffffffffffffffffffffffffffffffffffffffff16906020019092919050505061031d565b604051808215151515815260200191505060405180910390f35b3480156101be57600080fd5b506101c761033d565b604051808273ffffffffffffffffffffffffffffffffffffffff1673ffffffffffffffffffffffffffffffffffffffff16815260200191505060405180910390f35b34801561021557600080fd5b5061021e610363565b005b34801561022c57600080fd5b506102356103cd565b6040518082815260200191505060405180910390f35b34801561025757600080fd5b506102606103d3565b6040518082815260200191505060405180910390f35b34801561028257600080fd5b506102b7600480360381019080803573ffffffffffffffffffffffffffffffffffffffff1690602001909291905050506103d9565b005b6003818154811015156102c857fe5b906000526020600020016000915054906101000a900473ffffffffffffffffffffffffffffffffffffffff1681565b600460009054906101000a900473ffffffffffffffffffffffffffffffffffffffff1681565b60016020528060005260406000206000915054906101000a900460ff1681565b600560009054906101000a900473ffffffffffffffffffffffffffffffffffffffff1681565b600560009054906101000a900473ffffffffffffffffffffffffffffffffffffffff1673ffffffffffffffffffffffffffffffffffffffff163373ffffffffffffffffffffffffffffffffffffffff161415156103bf57600080fd5b600160005401600081905550565b60005481565b60025481565b600560009054906101000a900473ffffffffffffffffffffffffffffffffffffffff1673ffffffffffffffffffffffffffffffffffffffff163373ffffffffffffffffffffffffffffffffffffffff1614151561043557600080fd5b80600460006101000a81548173ffffffffffffffffffffffffffffffffffffffff021916908373ffffffffffffffffffffffffffffffffffffffff160217905550505600a165627a7a72305820728f03c7e30bacf2da7c6f0186b6f6d0e49c90d31f229399187ffabf70fb175f0029",
  "source": "pragma solidity ^0.4.23;\n\nimport \"./MultisigState.sol\";\nimport \"./MultisigWallet.sol\";\nimport \"./StateContainer.sol\";\n\ncontract ProxyMultisig is StateContainer {\n    function ProxyMultisig(uint256 _required, address[] _owners)\n        public\n    {\n        require(_required <= _owners.length);\n\n        address previousOwner = address(0);\n        for(uint256 i = 0; i < _owners.length; i++) {\n            require(_owners[i] > previousOwner);\n            previousOwner = _owners[i];\n        }\n\n        address methods = new MultisigWallet();\n        state = new MultisigState(_required, _owners, methods);\n    }\n\n    function () payable public {\n        address _currentMethods = state.methods();\n        bytes memory data = msg.data;\n\n        assembly {\n          let result := delegatecall(gas, _currentMethods, add(data, 0x20), mload(data), 0, 0)\n          let size := returndatasize\n          let ptr := mload(0x40)\n          returndatacopy(ptr, 0, size)\n          switch result\n          case 0 { revert(ptr, size) }\n          default { return(ptr, size) }\n        }\n    }\n}",
  "sourcePath": "/home/sevenflash/apps/blockchain/upgradeable-multisig/contracts/ProxyMultisig.sol",
  "compiler": {
    "name": "solc",
    "version": "0.4.23+commit.124ca40d.Emscripten.clang"
  },
  "schemaVersion": "2.0.0",
  "updatedAt": "2018-06-09T15:58:27.429Z"
}